:100000005AEF08F00000000000EF00F000000000D0
:0A0010000000000000000000F3D71C
:10001C00140E0C6EBE0E0D6E0D2EFED70C2EFCD7D4
:04002C0000001200BE
:0E0030002D0E0D6E0D2EFED7000000001200EA
:08003E000000000000001200A8
:0E004600026A016A006A086A036A000E12006C
:100054000B820BAE34EF00F003680268016800689D
:080064000A360232FF0E120001
:08006C000AAE029E000E120014
:100074000B840BAE45EF00F0010E036E026A016AB9
:0A008400006A0A360232FF0E120075
:10008E005EBE02D0839A01D0838A5EBC02D0839872
:10009E0001D083885EBA02D0839601D083865EB883
:1000AE0002D0839401D0838438B002D0838001D0F3
:1000BE0083908382BDDF83925EB602D0839A01D095
:1000CE00838A5EB402D0839801D083885EB202D058
:1000DE00839601D083865EB002D0839401D0838450
:1000EE0038B002D0838001D083908382A1DF8392C7
:0C00FE0038A002D08CDF01D094DF12008B
:10010A00086A096A100E0C6E013408360936045062
:10011A00085E0550D8A0053C095ED8B007D0045047
:10012A0008260550D8B0053C0926D8900036013675
:06013A000C2EEAD71200B2
:100140000CB0E2EF00F00CA288EF01F00E6A000E96
:100150000264F9EF00F0F00E0214D8A4C4EF00F02E
:10016000023A01380F0B02260138F00B016E0038FD
:100170000F0B01260038F00B006E08380F0B00261D
:100180000838F00B086E0E84D89002BEDDEF00F048
:1001900008360036013602360E2A02BEDDEF00F0C8
:1001A00008360036013602360E2A02BEDDEF00F0B8
:1001B00008360036013602360E2A0E5003647EEFF2
:1001C00001F0035E0BBC08AE83EF01F0D880800E17
:1001D00008640030000E002201220222D8A083EF22
:1001E00001F0023201320032034A88EF01F083EF5E
:1001F00001F001C002F000C001F008C000F0086A80
:10020000000E0E86026430EF01F0F00E0214D8A446
:1002100018EF01F0023A01380F0B02260138F00BFB
:10022000016E00380F0B01260038F00B006E0E84B3
:10023000D89002BEDDEF00F00036013602360E2AFD
:1002400002BEDDEF00F00036013602360E2A02BE95
:10025000DDEF00F00036013602360E2ADDEF00F049
:1002600001C002F000C001F0006A000E0E960E8878
:1002700002645DEF01F0F00E0214D8A448EF01F023
:10028000023A01380F0B02260138F00B016E0E8482
:10029000D89002BEDDEF00F0013602360E2A02BE13
:1002A000DDEF00F0013602360E2A02BEDDEF00F06F
:1002B000013602360E2ADDEF00F001C002F0016ABD
:1002C000000E0E8602648DEF01F0F00E0214D8A429
:1002D0006CEF01F0023A0E84D89002BEDDEF00F020
:1002E00002360E2A02BEDDEF00F002360E2A02BEF2
:1002F000DDEF00F002360E2ADDEF00F0010E0C6E8D
:10030000B9DE90EF01F0020E0C6EB0DE90EF01F05E
:10031000040E0C6E9FDE90EF01F0080E0C6E93DE63
:020320001200C9
:080322000B6A0B86FF0E1200AE
:10032A000B800BAEA1EF01F0026A0AAEFF0E026E5D
:0C033A00016E006E0A360232FF0E120047
:10034600025006180E6E086A096A0B6A03500764A3
:1003560096EF02F006500A6E068E028E03500B6E62
:100366000750036E000E0B64E6EF01F00B50075EBC
:10037600D8B487EF02F0070E076455EF02F0075E68
:1003860000C008F001C000F002C001F0026A074E8A
:1003960087EF02F007642AEF02F0075E00C008F05C
:1003A60001C000F0016A074E87EF02F0076408EF0C
:1003B60002F0075E00C008F0006A074E87EF02F001
:1003C6000764EFEF01F00AC002F005C001F004C0B7
:1003D60000F0086AB0EF03F0030E0764FAEF01F0CD
:1003E600075E08380F0B086E074E87EF02F0D890AD
:1003F6000832074E87EF02F0D8900832074E87EF93
:1004060002F0D890083287EF02F0030E076419EF66
:1004160002F0075E08380F0B086E0038F00B08264E
:1004260000380F0B006E074E87EF02F0D8900032AF
:100436000832074E87EF02F0D89000320832074E96
:1004460087EF02F0D8900032083287EF02F0030EF1
:10045600076441EF02F0075E08380F0B086E00389C
:10046600F00B082600380F0B006E0138F00B002643
:1004760001380F0B016E074E87EF02F0D89001325C
:1004860000320832074E87EF02F0D8900132003270
:100496000832074E87EF02F0D89001320032083258
:1004A60087EF02F0030E076472EF02F0075E08386A
:1004B6000F0B086E0038F00B082600380F0B006E85
:1004C6000138F00B002601380F0B016E0238F00BD5
:1004D600012602380F0B026E074E87EF02F0D89006
:1004E6000232013200320832074E87EF02F0D8900E
:1004F6000232013200320832074E87EF02F0D890FE
:100506000232013200320832096A000E0EAE7BEF6B
:1005160003F0081E001E011E021E082A00220122E8
:1005260002227BEF03F00750D8A49CEF02F0B0EF55
:1005360003F0096A02C00AF0028E068E0750035CB9
:10054600076ED8B46EEF03F0070E07643CEF03F0B6
:10055600075E0450096E0550046E0650056E066A65
:10056600074E6EEF03F0070E076411EF03F0075E08
:100576000450096E0550046E056A074E6EEF03F0CF
:10058600070E0764EFEF02F0075E0450096E046A77
:10059600074E6EEF03F0070E0764D6EF02F00AC0AF
:1005A60002F0B0EF03F0030E0764E1EF02F0075E1E
:1005B60009380F0B096E074E6EEF03F0D89009321B
:1005C600074E6EEF03F0D8900932074E6EEF03F038
:1005D600D89009326EEF03F0030E076400EF03F0C4
:1005E600075E09380F0B096E0438F00B092604382C
:1005F6000F0B046E074E6EEF03F0D89004320932EB
:10060600074E6EEF03F0D89004320932074E6EEFB4
:1006160003F0D890043209326EEF03F0030E07643C
:1006260028EF03F0075E09380F0B096E0438F00B4C
:10063600092604380F0B046E0538F00B042605381E
:100646000F0B056E074E6EEF03F0D890053204329D
:100656000932074E6EEF03F0D890053204320932A4
:10066600074E6EEF03F0D8900532043209326EEF72
:1006760003F0030E076459EF03F0075E09380F0B0A
:10068600096E0438F00B092604380F0B046E053882
:10069600F00B042605380F0B056E0638F00B052601
:1006A60006380F0B066E074E6EEF03F0D890063233
:1006B600053204320932074E6EEF03F0D890063247
:1006C600053204320932074E6EEF03F0D890063237
:1006D600053204320932086A000E0EAE7BEF03F0D3
:1006E600091E041E051E061E092A042205220622CC
:1006F6000950082604500022055001220650022205
:100706000EBE92EF03F0D8A0A1EF03F00232013241
:1007160000320832033EA1EF03F0ABEF03F0D8B08E
:10072600A6EF03F0000E081E001E011E021E082A78
:100736000022012202220A7EA6EF03F0010E0C6EB1
:10074600FCDCB2EF03F0020E0C6EF7DCB2EF03F046
:10075600040E0C6E7CDCB2EF03F0000E0C6E120081
:100766000C6A0E6A0250D8A4CCEF03F001C002F066
:1007760000C001F0006A0E860250D8A4CCEF03F048
:1007860001C002F0016A0E960E880250D8B4DEEF60
:1007960003F00E50035ED8A4D8A0E3EF03F0D89080
:1007A60002BEE8EF03F0003601360236032ED3EF21
:1007B60003F0E3EF03F0010E0C6E42DCEBEF03F007
:1007C600020E0C6E54DCEBEF03F0040E0C6E4BDCE9
:0207D60012000F
:0A07D800140E0D6E0D2EFED7120058
:1007E2000B6A0A6A096A00500402F4CF09F0F3CFD7
:1007F20008F001500502F4CF0BF0F3CF0AF00050DD
:100802000502F3500926F4500A22E86A0B2201502D
:100812000402F3500926F4500A22E86A0B2208C0A7
:1008220000F009C001F00AC002F00BC003F0120090
:0C083200389057C05EF02ADC38801200BD
:10083E005B6A050E5B5C0AE25B505924E16E000EAA
:10084E005A20E26E200EE66E5B2AF3D75B505924D7
:10085E00E16E000E5A20E26EE66A5B065B5059248A
:10086E005C6E000E5A205D6E0A0E046E000E056E52
:10087E0057C000F058C001F041DC08C000F009C0BC
:10088E0001F0300E00265CC0E1FF5DC0E2FF00C04B
:10089E00E6FF0A0E046E000E056E57C000F058C03B
:1008AE0001F02CDC00C057F001C058F0000E01180A
:1008BE0002E1000E001801E102D05B06CFD7120054
:1008CE00BB50010F006E016A000E01224DC004F0F4
:1008DE00000E056E7FDF060E026E00C004F001C032
:1008EE0005F0025005E005320432059EFF0FFAD7DF
:1008FE00040E016E04C000F0015004E000360090BA
:10090E00FF0FFBD7300E0014036E04C000F005C0BD
:10091E0001F001320032019E01320032019E00C010
:0C092E00BEFF0F0EBD160350BD121200DC
:0A093A009494BA840C0EBD12120052
:0C094400939ABA840C0E0F015D13120090
:0A0950000F015E6B5D995D9B1200C4
:10095A000050086E0150006E016A026A036A0B6A4F
:10096A000C6A960E036E0A6A00C001F008C000F015
:08097A00086A026AF3DE1200B4
:10098200086A096A000E0762036446EF05F0025026
:1009920006180A6E075003267E0ED8A0D7EF04F081
:1009A200035ED8B04BEF05F0DBEF04F0035ED8A096
:1009B20050EF05F0028E068E02C00EF001C00BF061
:1009C20000C00DF000500402F4CF0CF001500502FB
:1009D200F4CF00F0F3CF08F00402F3500C26F450E9
:1009E2000822000E00220D500502F3500C26F4508E
:1009F2000822000E002202500402F3500826F4508E
:100A0200002202500502016A000E0122F350002664
:100A1200F45001220D500602F3500826F450002231
:100A2200026A000E012202220B500602F350002637
:100A3200F4500122000E02220E500602F35001264B
:100A4200F450022202BE2EEF05F0083600360136BF
:100A520002360306D8B450EF05F041EF05F0D88016
:100A6200800E08640030000E002201220222D8A06B
:100A720041EF05F0023201320032034A4BEF05F03A
:100A82000AAE029E000E53EF05F0010E23EC00F0B9
:100A920053EF05F0020E2AEC00F053EF05F0040EBE
:060AA2003AEC00F0120026
:100AA800BB50010F006E016A000E01224DC004F018
:100AB800000E056E92DE060E026E00C004F001C044
:100AC80005F0025005E005320432059EFF0FFAD703
:100AD800040E016E04C000F0015004E000360090DE
:100AE800FF0FFBD7300E0014036E04C000F005C0E2
:100AF80001F001320032019E01320032019E00C035
:0E0B08005EFF0F0E0F015D1703505D1312000C
:100B160095929590959495969598959A83928390AB
:100B2600839A8398839683940EEC00F00EEC00F083
:100B36000EEC00F08386838483821FEC00F08392A0
:100B46000EEC00F083821FEC00F083920EEC00F0B6
:100B560083821FEC00F083920EEC00F08394838274
:100B66001FEC00F083920EEC00F083821FEC00F085
:100B760083928396838A83821FEC00F083920EEC25
:100B860000F0839A838483821FEC00F0839283941F
:100B960083821FEC00F083920EEC00F083821FEC40
:100BA60000F08392838483821FEC00F083920EEC24
:100BB60000F0839483821FEC00F08392838A8388FB
:100BC6008386838483821FEC00F083920EEC00F010
:040BD6003880120051
:100BDA000900F5CFE6FF0006FBE10106F9E1120084
:100BEA00C26A151C006E0050C1160F0EC012C08ECC
:100BFA004DC000F000360090003600900050C2123E
:100C0A00C280E5DDC282C2A201D0FDD7C4CF01F005
:100C1A00006A00C04EF001C04FF0C3500012000E2F
:100C2A00011200C04EF001C04FF0C290000E001435
:100C3A00026E0150800B036E000E031802E1000ED3
:100C4A00021802E04E6A4F6A4EC000F04FC001F02F
:020C5A00120086
:100C5C00FF0E396EFF0E3A6EFF0E3B6EFF0E3C6EB2
:100C6C00C26A151C006E0050C1160F0EC012C08E49
:040C7C00C280120020
:100C80000B6A0350D8B486EF06F002500A6E028E4B
:100C90008E0E035E03AE8AEF06F0036C080E035C53
:100CA000D8A065EF06F0036E013602C001F0026ABB
:100CB000080E035CD8A065EF06F0036E0136016AEA
:100CC0000350D8A4D8906FEF06F00350D8B46FEF5C
:100CD00006F0D89002320132032E69EF06F00BBC09
:100CE00001A07CEF06F0D8A07CEF06F0012AD8B472
:100CF000022A02BE99EF06F00AAE9FEF06F0021E2E
:100D0000011E012AD8B4022A9FEF06F0026A016A86
:100D10009FEF06F00B800BAEA3EF06F0026A0AAE5F
:100D2000A3EF06F0FF0E026E016E0A360232A3EF49
:100D300006F0010E0C6E95EC01F0A5EF06F0000E2A
:100D40000C6EA5EF06F0FF0E0C6E0150006E025007
:040D5000016E12001E
:100D54000450000A12E10550000A0FE10650000A8F
:100D64000CE10750000A09E1FF0E006EFF0E016E50
:100D74007F0E026EFF0E036EA8D0086A096A075040
:100D8400D8B455EF07F00350D8B45AEF07F0025027
:100D940006180A6E028E068E0E6A02C008F001C0A2
:100DA4000CF000C00DF004500D5E0550D8A0053CB9
:100DB4000C5E0650D8A0063C085E086A0C6A0D6AF0
:100DC400D8A0ECEF06F0D89002320132003208329B
:100DD400010E0E6E0750035ED8A0F9EF06F07E0EEA
:100DE4000E240326D8B05FEF07F0FFEF06F07E0E67
:100DF4000E240326D8A064EF07F0180E0B6E0D36F0
:100E04000C3608360036013602360E360450005EC3
:100E14000550D8A0053C015E0650D8A0063C025EF1
:100E240006340E120EA01AEF07F00D8025EF07F01E
:100E3400045000260550D8B0053C01260650D8B011
:100E4400062802260D900B2E01EF07F04BEF07F05A
:100E5400D8900036013602360E360450005E055036
:100E6400D8A0053C015E0650D8A0063C025E0634BC
:100E74000E10010B0D26D8B00C2AD8B4082AD8A419
:100E84004BEF07F008320C320D32032AD8B45FEF6F
:100E940007F00AAE089E0850026E0C50016E0D5009
:100EA400006E67EF07F0010E91EC01F067EF07F0B9
:100EB400020E23EC00F067EF07F0040E2AEC00F0BA
:0C0EC40067EF07F0080E3AEC00F0120097
:080ED000BE6ABD98BD9A120034
:100ED800536A546A4DC055F04EC056F0800E4E18F5
:100EE800006E800E005C02E1000E4D5C0BE2010E0C
:100EF800536E000E546E4D500008556E4EC056F09D
:100F0800000E565655C057F056C058F04FC059F00D
:100F180050C05AF090DC060E516E000E526E000E54
:100F2800006E5250005C02E15150000819E2515025
:100F38004F24E16E52505020E26E010E515C006E5B
:100F4800000E5258016E00504F24E96E0150502097
:100F5800EA6EEECFE6FF010E515E000E525ADFD761
:100F68004FC0E1FF50C0E2FF200EE66E5350541010
:100F78001AE0516A526A51504F24E96E525050207B
:100F8800EA6EEE50200A03E1514A522AF4D7010EC4
:100F9800515E000E525A51504F24E16E525050206B
:080FA800E26E2D0EE66E120050
:100FB0000FD0800E4D6E19D0C00E4D6E16D0940E0F
:100FC0004D6E13D0D40E4D6E10D0800E4D6E0DD0E0
:100FD0004D50010AEEE04D50020AEEE04D50030A7A
:100FE000EEE04D50040AEEE0F0D74E04006E4D5096
:100FF000002600C04DF000C05EF047EC00F03890D5
:10100000516A51504F24E96E000E5020EA6EEE52A4
:101010000BE051504F24E96E000E5020EA6EEECFE7
:0C10200057F007DC512AEDD73880120091
:10102C00BB50010F006E016A000E01224DC004F08E
:10103C00000E056EF1EC03F0060E026E00C004F01B
:10104C0001C005F0025005E005320432059EFF0F89
:10105C00FAD7040E016E04C000F0015004E0003613
:10106C000090FF0FFBD7300E0014036E04C000F08D
:10107C0005C001F001320032019E01320032019EA6
:0E108C0000C067FF0F0E6616035066121200BA
:08109A00067EA3EC01F0120038
:0810A200676A6698669A120065
:0A10AA009492BA840C0E6612120034
:1010B400EEEC0BF00F013A6B946AFF0E386FFF0EE3
:1010C400926E396B936A3B6B956A23DD010E5E6EFB
:1010D40047EC00F00C0E5E6E47EC00F0BDDD4D6A8F
:1010E40082DD39DC00C049F001C04AF002C04BF097
:1010F40003C04CF049C030F04AC031F04BC032F06C
:101104004CC033F0CD0E006EAF0E016E660E026E53
:10111400730E036E49C004F04AC005F04BC006F0DC
:101124004CC007F02CDC49C004F04AC005F04BC0A9
:1011340006F04CC007F023DC00C045F001C046F0C7
:1011440002C047F003C048F05C0E006E8F0E016EC3
:10115400020E026E7E0E036E49C004F04AC005F012
:101164004BC006F04CC007F00ADC00C004F001C01C
:1011740005F002C006F003C007F045C000F046C009
:1011840001F047C002F048C003F085DF000E046E92
:10119400000E056E200E066E860E076EA3EC01F09F
:1011A40000C034F001C035F002C036F003C037F09F
:1011B40000C004F001C005F002C006F003C007F04F
:1011C400000E006E000E016E000E026E7F0E036EA6
:1011D400BFDD00C02CF001C02DF002C02EF003C012
:1011E4002FF0610E046E0B0E056E360E066E780E31
:1011F400076E51DF390E046E8E0E056E630E066E99
:101204007A0E076EA5DD000E046E000E056E480E04
:10121400066E850E076EC1EC04F000C02CF001C010
:101224002DF002C02EF003C02FF0000E046E000E4D
:10123400056E480E066E850E076E8ADD000E046E7E
:10124400000E056E7F0E066E860E076EC1EC04F06E
:1012540015DD00C016F001C017F0BA80BA92AC0ECA
:10126400BB6E34DE9DEC04F0800E1718006E800E09
:10127400005C02E1EB0E165C13E3FF0E4D6E67ECAF
:1012840004F0080E0B6E040E0C6E4B0E0D6E0D2E3C
:10129400FED70C2EFCD70B2EFAD7000000005BD033
:1012A400800E006E800E1718005C02E116500808CC
:1012B40025E3020E4D6E67EC04F016C04DF017C026
:1012C4004EF0180E4F6E000E506E04DE010E4D6E81
:1012D400010E4E6E180E4F6E000E506E67DE080E35
:1012E4000B6E040E0C6E4B0E0D6E0D2EFED70C2ED7
:1012F400FCD70B2EFAD7000000002DD016C04DF0FD
:1013040067EC04F02CC000F02DC001F02EC002F0F8
:101314002FC003F0B3DC00C04DF001C04EF0180E36
:101324004F6E000E506ED6DD010E4D6E010E4E6EE8
:10133400180E4F6E000E506E39DE030E0B6E580EF3
:101344000C6E9F0E0D6E0D2EFED70C2EFCD70B2EA1
:10135400FAD700000000010E4D6E45DCADEC04F040
:1013640000C049F001C04AF002C04BF003C04CF089
:1013740049C03DF04AC03EF04BC03FF04CC040F085
:10138400CD0E006EAF0E016E660E026E730E036E0E
:1013940049C004F04AC005F04BC006F04CC007F049
:1013A400C1EC04F049C004F04AC005F04BC006F09B
:1013B4004CC007F0C1EC04F000C045F001C046F099
:1013C40002C047F003C048F05C0E006E8F0E016E41
:1013D400020E026E7E0E036E49C004F04AC005F090
:1013E4004BC006F04CC007F0C1EC04F000C004F0A0
:1013F40001C005F002C006F003C007F045C000F0CC
:1014040046C001F047C002F048C003F044DE000EBD
:10141400046E000E056E200E066E860E076EA3EC9B
:1014240001F000C034F001C035F002C036F003C052
:1014340037F000C004F001C005F002C006F003C09C
:1014440007F0000E006E000E016E000E026E7F0E9D
:10145400036E7EDC00C02CF001C02DF002C02EF023
:1014640003C02FF0610E046E0B0E056E360E066E71
:10147400780E076E10DE390E046E8E0E056E630E46
:10148400066E7A0E076E64DC000E046E000E056EA6
:10149400480E066E850E076EC1EC04F000C02CF0F9
:1014A40001C02DF002C02EF003C02FF0000E046E18
:1014B400000E056E480E066E850E076E49DC000EA2
:1014C400046E000E056E7F0E066E860E076EC1EC6E
:1014D40004F040EC06F000C016F001C017F0BA802A
:1014E400BA92AC0EBB6EDBDDDEDD800E1718006E2B
:1014F400800E005C02E1EB0E165C12E3FF0E4D6EF3
:1015040093DD080E0B6E040E0C6E4B0E0D6E0D2E3D
:10151400FED70C2EFCD70B2EFAD70000000035D0D6
:10152400800E006E800E1718005C02E11650080849
:1015340012E3020E4D6E78DD080E0B6E040E0C6E77
:101544004B0E0D6E0D2EFED70C2EFCD70B2EFAD79C
:10155400000000001AD016C04DF066DD16C04DF034
:1015640017C04EF0180E4F6E000E506EB3DC030E13
:101574000B6E580E0C6E9F0E0D6E0D2EFED70C2E9C
:10158400FCD70B2EFAD700000000020E4D6EF5ECCE
:1015940005F0ADEC04F000C049F001C04AF002C00F
:1015A4004BF003C04CF049C041F04AC042F04BC07C
:1015B40043F04CC044F0CD0E006EAF0E016E660ECB
:1015C400026E730E036E49C004F04AC005F04BC0AE
:1015D40006F04CC007F0C1EC04F049C004F04AC066
:1015E40005F04BC006F04CC007F0C1EC04F000C09D
:1015F40045F001C046F002C047F003C048F05C0E5D
:10160400006E8F0E016E020E026E7E0E036E49C0D6
:1016140004F04AC005F04BC006F04CC007F0C1EC22
:1016240004F000C004F001C005F002C006F003C0DD
:1016340007F045C000F046C001F047C002F048C0C2
:1016440003F029DD000E046E000E056E200E066EFA
:10165400860E076EA3EC01F000C034F001C035F033
:1016640002C036F003C037F000C004F001C005F03A
:1016740002C006F003C007F0000E006E000E016EFB
:10168400000E026E7F0E036EAAEC06F000C02CF072
:1016940001C02DF002C02EF003C02FF0610E046EC5
:1016A4000B0E056E360E066E780E076EF4DC390EE0
:1016B400046E8E0E056E630E066E7A0E076EAAEC2D
:1016C40006F0000E046E000E056E480E066E850EC2
:1016D400076EC1EC04F000C02CF001C02DF002C074
:1016E4002EF003C02FF0000E046E000E056E480E9F
:1016F400066E850E076EAAEC06F0000E046E000E50
:10170400056E7F0E066E860E076EC1EC04F040EC8B
:1017140006F000C016F001C017F0BA80BA92AC0E01
:10172400BB6EA8EC04F0A2EC04F0800E1718006E57
:10173400800E005C02E1EB0E165C13E3FF0E4D6EAF
:1017440054EC05F0080E0B6E040E0C6E4B0E0D6E71
:101754000D2EFED70C2EFCD70B2EFAD7000000005E
:1017640038D0800E006E800E1718005C02E116500F
:10177400080813E3020E4D6E54EC05F0080E0B6ED0
:10178400040E0C6E4B0E0D6E0D2EFED70C2EFCD7D8
:101794000B2EFAD7000000001CD016C04DF054ECFC
:1017A40005F016C04DF017C04EF0180E4F6E000E27
:1017B400506E6CEC07F0030E0B6E580E0C6E9F0E01
:1017C4000D6E0D2EFED70C2EFCD70B2EFAD7000073
:0617D40000007BD4FFD7EA
:1017DC0010EE15F0010E006E010E016EDA0EF66EB3
:0E17EC00170EF76E000EF86EEDEC05F0120011
:0117DA000FFF
:020000040030CA
:0D000100231F3CFFBF81FF0FC00FE00F4029
:00000001FF
